:100000000C9408010C9425010C9425010C942501F5
:100010000C9425010C9425010C9425010C942501C8
:100020000C9425010C9425010C94C6040C94000535
:100030000C9425010C9425010C9425010C942501A8
:100040000C9425010C9425010C9425010C94250198
:100050000C9425010C9425010C9425010C94250188
:100060000C9425010C9425010C9425010C94250178
:100070000C9425010C9425010C9425010C94250168
:100080000C9425010C9425010C9425010C94250158
:100090000C9425010C9425010C9425010C94250148
:1000A0000C9425010C9425010C9425016F046B041C
:1000B000670463045F045B04570453044F044B0458
:1000C000470443043F043B04370433042F042B0448
:1000D000270423041F041B04170413040F040B0438
:1000E00007040304FF03FB03F703F303EF03EB032E
:1000F000E703E303DF03DB03D703D303CF03CB0320
:10010000C703C303BF03BB03B703B303AF03AB030F
:10011000A703A3039F039B03970393038F038B03FF
:10012000870383037F037B03770373036F030A0053
:100130000A000D41444332203D20000909000D41D1
:10014000444331203D20000A004F435231412020DA
:1001500020000A004F4352334120202000000100BC
:1001600000F4011200020000B1014300030000ADE1
:100170000104010309049901120203090491010613
:10018000030309048701080803340031003000002C
:100190000006034D003200000012034A002E00202A
:1001A000004600690065006E006500000004030958
:1001B0000409024300020100C032090400000102E8
:1001C000020100052400100105240101010424029C
:1001D00006052406000107058203100040090401FA
:1001E00000020A0000000705030240000007058422
:1001F000024000001201000202000010C0167A0442
:100200000001010203010001C112018036018136A3
:1002100011241FBECFEFDAE0DEBFCDBF11E0A0E0BA
:10022000B1E0EAEFF3E102C005900D92A830B1070A
:10023000D9F721E0A8E0B1E001C01D92AC30B207CF
:10024000E1F70E944D070C94FB090C9400003E9AC4
:10025000E1E9F0E080818D7F808380818E7F8083E3
:10026000808184608083A0E9B0E08C9180688C9369
:100270008081806180838081886080838C918260AE
:100280008C938C918E7F8C9382EE94E09093970068
:10029000809396000895CF93DF936FEF73E0681B10
:1002A000790B072E000C880B990B0E9496082BE106
:1002B0003FE24DE55DE30E94220920E030E040EF9F
:1002C00051E40E94870720E030E040E251E40E94C0
:1002D00087070E946508C8E9D0E07983688384E5D0
:1002E00091E00E944C06888199810E94800682E5F7
:1002F00091E0DF91CF910C944C069C0190917C0091
:10030000906490937C0090917A00916090937A0031
:1003100090917A00926090937A0090917A00946024
:1003200090937A002130310599F480917E008260AB
:1003300080937E0080917C00816080937C0080911E
:100340007C008D7F80937C0080917C008B7F15C02A
:1003500025303105C9F480917E00806280937E0053
:1003600080917C00816080937C0080917C008D7FF7
:1003700080937C0080917C00846080937C008091DD
:100380007B008F7D80937B00089580917A00806848
:1003900080937A0080917A00806480937A008091C3
:1003A0007A0084FFF7CF80917A00806180937A0091
:1003B000809178009091790008958630910511F42C
:1003C0000C942701059779F5259A809181008D7FFE
:1003D00080938100809181008E7F80938100809145
:1003E0008100846080938100809180008068809388
:1003F00080008091810080618093810080918100E4
:10040000886080938100809180008260809380006A
:10041000809180008E7F8093800082EE94E09093A4
:1004200087008093860008956630710511F40C945E
:100430004B016530710509F041C0BC01072E000C6D
:10044000880B990B0E94960820E030E04CE953E4B9
:100450000E9487079B01AC0160E070E080E894E4B3
:100460000E94860720E030E040E85AE30E9422091B
:1004700020E030E040E85FE30E94870720E030E0C2
:1004800040EA51E40E94F30720E030E44CE954E4F0
:100490000E9422090E946508709389006093880079
:1004A00089E491E00E944C06809188009091890037
:1004B0000E94800687E491E00C944C060895809198
:1004C000E80080FFFCCF089581E08093D70080EAA8
:1004D0008093D80082E189BD09B400FEFDCF80E998
:1004E0008093D8001092E00010920B011092080146
:1004F0008CE08093E2007894089580910B01089538
:100500009FB7F89480910B01882339F083E08093A2
:10051000E9008091E80085FD03C09FBF8FEF08953B
:100520008091F1002091E80025FD03C02BE6209387
:10053000E8009FBF08959FB7F89480910B0188232E
:1005400031F083E08093E9008091F20001C080E007
:100550009FBF089580910B01882371F08FB7F894A5
:1005600093E09093E9002BE69091E80095FF03C09B
:100570002093E800F9CF8FBF089590910B01992344
:1005800071F09FB7F89424E02093E90020910901CD
:10059000222349F02091E80025FD03C09FBF8FEF83
:1005A0000895109209012091E400275E34E0409103
:1005B000E80045FD12C09FBF9091E400291304C0DC
:1005C00081E080930901EBCF90910B01992339F3DE
:1005D0009FB7F8943093E900EACF8093F1008091BF
:1005E000E80085FD03C08AE38093E80085E08093FE
:1005F0000A019FBF80E0089590910B019923D1F0EB
:100600009FB7F89424E02093E9002091E80025FDAD
:1006100002C09FBF0FC08093F1008091E80085FD6C
:1006200003C08AE38093E80085E080930A019FBFBE
:1006300080E008958FEF08950F931F93CF93DF937A
:10064000DC01CB0120910B01222371F02FB7F8942C
:1006500034E03093E90030910901332349F03091BF
:10066000E80035FD03C02FBF8FEF43C11092090191
:10067000C4E0D0E41AE305E0009709F438C13091F2
:10068000E400375E4091E80045FD12C02FBF209185
:10069000E400321304C081E080930901E5CF20918A
:1006A0000B01222309F32FB7F894C093E900EACF96
:1006B0003091F200ED2FE31B4E2F50E08417950789
:1006C00008F4E82F8E1B91094E2F50E0413451055C
:1006D00008F001C1FA01EA5AFF4F0C948F093C91CE
:1006E0003093F10011963C913093F10011963C91BA
:1006F0003093F10011963C913093F10011963C91AA
:100700003093F10011963C913093F10011963C9199
:100710003093F10011963C913093F10011963C9189
:100720003093F10011963C913093F10011963C9179
:100730003093F10011963C913093F10011963C9169
:100740003093F10011963C913093F10011963C9159
:100750003093F10011963C913093F10011963C9149
:100760003093F10011963C913093F10011963C9139
:100770003093F10011963C913093F10011963C9129
:100780003093F10011963C913093F10011963C9119
:100790003093F10011963C913093F10011963C9109
:1007A0003093F10011963C913093F10011963C91F9
:1007B0003093F10011963C913093F10011963C91E9
:1007C0003093F10011963C913093F10011963C91D9
:1007D0003093F10011963C913093F10011963C91C9
:1007E0003093F10011963C913093F10011963C91B9
:1007F0003093F10011963C913093F10011963C91A9
:100800003093F10011963C913093F10011963C9198
:100810003093F10011963C913093F10011963C9188
:100820003093F10011963C913093F10011963C9178
:100830003093F10011963C913093F10011963C9168
:100840003093F10011963C913093F10011963C9158
:100850003093F10011963C913093F10011963C9148
:100860003093F10011963C913093F10011963C9138
:100870003093F10011963C913093F10011963C9128
:100880003093F10011963C913093F10011963C9118
:100890003093F10011963C913093F10011963C9108
:1008A0003093F10011963C913093F10011963C91F8
:1008B0003093F10011963C913093F10011963C91E8
:1008C0003093F10011963C913093F10011963C91D8
:1008D0003093F10011963C913093F10011963091D4
:1008E000E80035FF1093E80000930A01C5CE2FBF42
:1008F00080E0DF91CF911F910F9108958FB7F89409
:1009000090910A01992341F094E09093E9009AE3D1
:100910009093E80010920A018FBF0895809104011E
:1009200008958091050108958091060108958091B0
:10093000080108959FB7F89420910B01222339F004
:1009400022E02093E9003091E80035FD03C09FBF0D
:100950008FEF089531EA3093F10030E23093F100E7
:100960001092F1001092F1001092F1001092F1003B
:100970002093F1001092F1008093F1001092F100A9
:100980008AE38093E8009FBF80E008951F920F9252
:100990000FB60F9211248F939F938091E1001092D4
:1009A000E10083FF11C01092E90091E09093EB0009
:1009B0001092EC0092E19093ED0098E09093F0009B
:1009C00010920B011092080182FF13C080910B015D
:1009D000882379F080910A01882359F0815080930F
:1009E0000A01811106C084E08093E9008AE38093C4
:1009F000E8009F918F910F900FBE0F901F90189558
:100A00001F920F920FB60F921124FF920F931F9314
:100A10002F933F934F935F936F937F938F939F9306
:100A2000AF93BF93CF93DF93EF93FF931092E900BF
:100A30008091E80083FF17C1F090F1008091F100F0
:100A40000091F1009091F10010E0192BC091F1009C
:100A50009091F100D0E0D92B2091F1006091F1004C
:100A600092EF9093E800863009F049C08DE591E05F
:100A700047E851E0FC01A591B4910A171B07D9F48E
:100A8000FC013296A591B491CA17DB07A1F4FC01D1
:100A9000349645915491FC013696849130E0362B82
:100AA0002F3F310519F010F02FEF30E0281708F430
:100AB000822F3EEF0CC0079648175907D9F6D3C0CE
:100AC000490F511D891B3093E8008823A9F09091AC
:100AD000E800292F2570D9F392FDC8C0982F8131E5
:100AE00008F090E1FA01292F222351F364916093D9
:100AF000F10021503196F8CF903149F3B7C08530DD
:100B000049F48EEF8093E8000E945F020068009332
:100B1000E300ACC0893059F5F110A5C000930B017A
:100B20001092080110920A018EEF8093E80041E0D4
:100B300086E092E04093E9009C012F5F3F4FFC016B
:100B400054915093EB00552359F0F90124912093CF
:100B5000EC009C012D5F3F4F3196E491E093ED0056
:100B60004F5F453011F0C901E5CF8EE177C0883085
:100B700051F4F0E8FF1277C00E945F0280910B01F0
:100B80008093F10049C0813281F481EAF8126BC090
:100B90000E945F02E0E0F1E087E091E02191209384
:100BA000F1008E179F07D1F737C08032A9F491E288
:100BB000F91259C08091E80082FFFCCFE0E0F1E03B
:100BC00087E091E02091F10021938E179F07D1F7E4
:100BD0008BEF8093E80020C0823241F4E1E2FE1204
:100BE00042C0009308010E945F0216C0811118C024
:100BF0000E945F02F2E8FF120AC0C093E9008091F0
:100C0000EB0085FB882780F91092E90001C080E0A5
:100C10008093F1001092F1008EEF8093E80026C0DF
:100C2000982F9D7F9130F9F492E0F9121CC0012BAE
:100C3000D1F4CF779FEF9C0F9430A8F49EEF909360
:100C4000E800C093E900833071F089E18093EB0004
:100C500081E090E001C0880FCA95EAF78093EA002E
:100C60001092EA0003C081E28093EB00FF91EF91C4
:100C7000DF91CF91BF91AF919F918F917F916F91B4
:100C80005F914F913F912F911F910F91FF900F9086
:100C90000FBE0F901F9018951F93CF93DF93EC0119
:100CA000FE011491112351F01A3019F48DE00E94C5
:100CB000BD02812F0E94BD022196F2CFDF91CF911C
:100CC0001F9108958A3010F097E301C090E3890FD7
:100CD0000C94BD02CF93C82F82958F700E9462063C
:100CE0008C2F8F70CF910C946206CF93C82F892FD1
:100CF0000E946A068C2FCF910C946A060C946A06A7
:100D0000EF92FF920F931F93CF93DF93CDB7DEB790
:100D100027970FB6F894DEBF0FBECDBF8E010F5FD1
:100D20001F4F27E0F80111922A95E9F74AE0B80130
:100D30000E9495097E01F8E0EF0EF11CF801819107
:100D40008F0181110E94BD020E151F05B9F727966C
:100D50000FB6F894DEBF0FBECDBFDF91CF911F91CC
:100D60000F91FF90EF900895EF92FF920F931F93D2
:100D7000CF93DF9300D000D000D0CDB7DEB78E0187
:100D80000F5F1F4F26E0F80111922A95E9F74AE01C
:100D9000B8010E94D1097E01F6E0EF0EF11CF801C6
:100DA00081918F0181110E94BD020E151F05B9F7B7
:100DB00026960FB6F894DEBF0FBECDBFDF91CF9160
:100DC0001F910F91FF90EF900895EF92FF920F9374
:100DD0001F93CF93DF93CDB7DEB72B970FB6F89461
:100DE000DEBF0FBECDBF8E010F5F1F4F2BE0F8019E
:100DF00011922A95E9F72AE0A8010E94A0097E0134
:100E0000FCE0EF0EF11CF80181918F0181110E942D
:100E1000BD020E151F05B9F72B960FB6F894DEBF6D
:100E20000FBECDBFDF91CF911F910F91FF90EF903B
:100E30000895EF92FF920F931F93CF93DF93CDB757
:100E4000DEB72B970FB6F894DEBF0FBECDBF8E0175
:100E50000F5F1F4F2BE0F80111922A95E9F72AE066
:100E6000A8010E94AF097E01FBE0EF0EF11CF80122
:100E700081918F0181110E94BD020E151F05B9F7E6
:100E80002B960FB6F894DEBF0FBECDBFDF91CF918A
:100E90001F910F91FF90EF9008950E94640281E0EE
:100EA00090E00E947D0185E090E00E94DD010E94BB
:100EB000C501EC018EE391E00E944C06CE010E9438
:100EC000B4068BE391E00E944C0665E070E0CE0131
:100ED0000E94140285E090E00E947D010E9427019B
:100EE0000E94C501EC0182E391E00E944C06CE0114
:100EF0000E94B40680E391E00E944C06CE010E945D
:100F00004B018EE291E00E944C06C9CF5058BB279E
:100F1000AA270E949E070C94E8080E94DA0838F07D
:100F20000E94E10820F039F49F3F19F426F40C9454
:100F3000D7080EF4E095E7FB0C94D108E92F0E9446
:100F4000F90858F3BA17620773078407950720F06A
:100F500079F4A6F50C941B090EF4E0950B2EBA2F2C
:100F6000A02D0B01B90190010C01CA01A0011124AF
:100F7000FF27591B99F0593F50F4503E68F11A165B
:100F8000F040A22F232F342F4427585FF3CF4695EC
:100F900037952795A795F0405395C9F77EF41F160E
:100FA000BA0B620B730B840BBAF09150A1F0FF0FD8
:100FB000BB1F661F771F881FC2F70EC0BA0F621FC4
:100FC000731F841F48F4879577956795B795F795B4
:100FD0009E3F08F0B0CF9395880F08F09927EE0F49
:100FE0009795879508950E9407080C94E8080E9439
:100FF000E10858F00E94DA0840F029F45F3F29F038
:101000000C94D10851110C941C090C94D7080E941F
:10101000F90868F39923B1F3552391F3951B550B08
:10102000BB27AA2762177307840738F09F5F5F4FBB
:10103000220F331F441FAA1FA9F335D00E2E3AF0FA
:10104000E0E832D091505040E695001CCAF72BD012
:10105000FE2F29D0660F771F881FBB1F2617370763
:101060004807AB07B0E809F0BB0B802DBF01FF2795
:1010700093585F4F3AF09E3F510578F00C94D10899
:101080000C941C095F3FE4F3983ED4F38695779562
:101090006795B795F7959F5FC9F7880F911D96954E
:1010A000879597F90895E1E0660F771F881FBB1FAA
:1010B000621773078407BA0720F0621B730B840B57
:1010C000BA0BEE1F88F7E09508950E94010988F099
:1010D0009F5798F0B92F9927B751B0F0E1F0660FFC
:1010E000771F881F991F1AF0BA95C9F714C0B1303D
:1010F00091F00E941B09B1E008950C941B09672F21
:10110000782F8827B85F39F0B93FCCF3869577956B
:101110006795B395D9F73EF4909580957095619554
:101120007F4F8F4F9F4F0895E89409C097FB3EF47F
:1011300090958095709561957F4F8F4F9F4F992324
:10114000A9F0F92F96E9BB279395F69587957795A2
:101150006795B795F111F8CFFAF4BB0F11F460FF62
:101160001BC06F5F7F4F8F4F9F4F16C0882311F0BA
:1011700096E911C0772321F09EE8872F762F05C0CE
:10118000662371F096E8862F70E060E02AF09A9569
:10119000660F771F881FDAF7880F9695879597F95E
:1011A000089597F99F6780E870E060E008959FEFE9
:1011B00080EC089500240A941616170618060906EE
:1011C000089500240A9412161306140605060895BD
:1011D000092E0394000C11F4882352F0BB0F40F445
:1011E000BF2B11F460FF04C06F5F7F4F8F4F9F4F85
:1011F000089557FD9058440F551F59F05F3F71F007
:101200004795880F97FB991F61F09F3F79F087956D
:101210000895121613061406551FF2CF4695F1DFF6
:1012200008C0161617061806991FF1CF8695710586
:10123000610508940895E894BB2766277727CB01BA
:1012400097F908950E9435090C94E8080E94DA087D
:1012500038F00E94E10820F0952311F00C94D10899
:101260000C94D70811240C941C090E94F90870F3FF
:10127000959FC1F3950F50E0551F629FF001729F3B
:10128000BB27F00DB11D639FAA27F00DB11DAA1F4A
:10129000649F6627B00DA11D661F829F2227B00D97
:1012A000A11D621F739FB00DA11D621F839FA00D22
:1012B000611D221F749F3327A00D611D231F849F72
:1012C000600D211D822F762F6A2F11249F575040C9
:1012D0009AF0F1F088234AF0EE0FFF1FBB1F661F44
:1012E000771F881F91505040A9F79E3F510580F00D
:1012F0000C94D1080C941C095F3FE4F3983ED4F39E
:10130000869577956795B795F795E7959F5FC1F7B0
:10131000FE2B880F911D9695879597F90895EE0FEE
:10132000FF1F0590F491E02D0994BB274A3031F45A
:10133000992322F4BDE2909581959F4F0C94D20998
:10134000BB272A3051F4992342F4BDE29095809551
:10135000709561957F4F8F4F9F4F0C94B009BB27BD
:10136000FA01A62F6217710581059105330B30FB39
:1013700066F0AA27660F771F881F991FAA1FA2175A
:1013800010F0A21B63953850A9F7A05DAA3308F0AE
:10139000A95DA19336F7B111B1931082CA010C94E3
:1013A000EB09BB27FB015527AA27880F991FAA1F06
:1013B000A41710F0A41B83955051B9F7A05DAA3370
:1013C00008F0A95DA193009779F7B111B19311923B
:1013D000CB010C94EB09DC01FC01672F71917723A1
:1013E000E1F7329704C07C916D9370836291AE17E0
:0A13F000BF07C8F30895F894FFCF7B
:0813FA0000E100000000080002
:00000001FF
