:100000000C94F1000C940E010C940E010C940E0152
:100010000C940E010C940E010C940E010C940E0124
:100020000C940E010C940E010C94AC030C94E6039A
:100030000C940E010C940E010C940E010C940E0104
:100040000C940E010C940E010C940E010C940E01F4
:100050000C940E010C940E010C940E010C940E01E4
:100060000C940E010C940E010C940E010C940E01D4
:100070000C940E010C940E010C940E010C940E01C4
:100080000C940E010C940E010C940E010C940E01B4
:100090000C940E010C940E010C940E010C940E01A4
:1000A0000C940E010C940E010C940E015503510397
:1000B0004D034903450341033D0339033503310330
:1000C0002D032903250321031D0319031503110320
:1000D0000D03090305030103FD02F902F502F10214
:1000E000ED02E902E502E102DD02D902D502D10208
:1000F000CD02C902C502C102BD02B902B502B102F8
:10010000AD02A902A502A1029D02990295029102E7
:100110008D028902850281027D02790275027102D7
:100120006D026902650261025D0259025502000119
:100130000000C5011200020000820143000300001C
:100140007E0104010309046A011202030904620129
:100150000603030904580108080334003100300085
:10016000000006034D003200000012034A002E007A
:1001700020004600690065006E0065000000040371
:10018000090409024300020100C032090400000111
:1001900002020100052400100105240101010424CC
:1001A0000206052406000107058203100040090429
:1001B0000100020A000000070503024000000705D5
:1001C00084024000001201000202000010C0167AF2
:1001D000040001010203010001C112018036018106
:1001E000360011241FBECFEFDAE0DEBFCDBF11E035
:1001F000A0E0B1E0E2EEFDE002C005900D92A83073
:10020000B107D9F721E0A8E0B1E001C01D92AE30FE
:10021000B207E1F70E9433060C94EF060C9400003D
:10022000CF93DF93C9B1C074D0E080910801909161
:100230000901C817D90749F0CE010E949A058AE042
:100240000E94A3018DE00E94A301D0930901C093F5
:100250000801DF91CF910895C59902C0C59AFCCFDE
:1002600080919600909197000E949A058AE00E94E2
:10027000A3018DE00E94A30160919400709195000C
:1002800080E090E00E94460608958091E80080FF9B
:10029000FCCF089581E08093D70080EA8093D80056
:1002A00082E189BD09B400FEFDCF80E98093D800CA
:1002B0001092E00010920D0110920A018CE08093E0
:1002C000E2007894089580910D0108959FB7F89405
:1002D00080910D01882339F083E08093E9008091BB
:1002E000E80085FD03C09FBF8FEF08958091F10066
:1002F0002091E80025FD03C02BE62093E8009FBF76
:1003000008959FB7F89480910D01882331F083E020
:100310008093E9008091F20001C080E09FBF0895C2
:1003200080910D01882371F08FB7F89493E090933A
:10033000E9002BE69091E80095FF03C02093E800C8
:10034000F9CF8FBF089590910D01992371F09FB758
:10035000F89424E02093E90020910B01222349F036
:100360002091E80025FD03C09FBF8FEF08951092F4
:100370000B012091E400275E34E04091E80045FD48
:1003800012C09FBF9091E400291304C081E08093C4
:100390000B01EBCF90910D01992339F39FB7F8949E
:1003A0003093E900EACF8093F1008091E80085FD69
:1003B00003C08AE38093E80085E080930C019FBF2F
:1003C00080E0089590910D019923D1F09FB7F894A2
:1003D00024E02093E9002091E80025FD02C09FBFA2
:1003E0000FC08093F1008091E80085FD03C08AE38F
:1003F0008093E80085E080930C019FBF80E0089522
:100400008FEF08950F931F93CF93DF93DC01CB0100
:1004100020910D01222371F02FB7F89434E030932E
:10042000E90030910B01332349F03091E80035FDAC
:1004300003C02FBF8FEF43C110920B01C4E0D0E483
:100440001AE305E0009709F438C13091E400375E03
:100450004091E80045FD12C02FBF2091E400321307
:1004600004C081E080930B01E5CF20910D01222390
:1004700009F32FB7F894C093E900EACF3091F20066
:10048000ED2FE31B4E2F50E08417950708F4E82F5B
:100490008E1B91094E2F50E04134510508F001C1E7
:1004A000FA01EA5AFF4F0C9483063C913093F10015
:1004B00011963C913093F10011963C913093F100EC
:1004C00011963C913093F10011963C913093F100DC
:1004D00011963C913093F10011963C913093F100CC
:1004E00011963C913093F10011963C913093F100BC
:1004F00011963C913093F10011963C913093F100AC
:1005000011963C913093F10011963C913093F1009B
:1005100011963C913093F10011963C913093F1008B
:1005200011963C913093F10011963C913093F1007B
:1005300011963C913093F10011963C913093F1006B
:1005400011963C913093F10011963C913093F1005B
:1005500011963C913093F10011963C913093F1004B
:1005600011963C913093F10011963C913093F1003B
:1005700011963C913093F10011963C913093F1002B
:1005800011963C913093F10011963C913093F1001B
:1005900011963C913093F10011963C913093F1000B
:1005A00011963C913093F10011963C913093F100FB
:1005B00011963C913093F10011963C913093F100EB
:1005C00011963C913093F10011963C913093F100DB
:1005D00011963C913093F10011963C913093F100CB
:1005E00011963C913093F10011963C913093F100BB
:1005F00011963C913093F10011963C913093F100AB
:1006000011963C913093F10011963C913093F1009A
:1006100011963C913093F10011963C913093F1008A
:1006200011963C913093F10011963C913093F1007A
:1006300011963C913093F10011963C913093F1006A
:1006400011963C913093F10011963C913093F1005A
:1006500011963C913093F10011963C913093F1004A
:1006600011963C913093F10011963C913093F1003A
:1006700011963C913093F10011963C913093F1002A
:1006800011963C913093F10011963C913093F1001A
:1006900011963C913093F10011963C913093F1000A
:1006A00011963C913093F10011963091E80035FF9E
:1006B0001093E80000930C01C5CE2FBF80E0DF91BE
:1006C000CF911F910F9108958FB7F89490910C01DD
:1006D000992341F094E09093E9009AE39093E80025
:1006E00010920C018FBF08958091040108958091AC
:1006F0000501089580910601089580910A010895E9
:100700009FB7F89420910D01222339F022E0209325
:10071000E9003091E80035FD03C09FBF8FEF0895D9
:1007200031EA3093F10030E23093F1001092F100A1
:100730001092F1001092F1001092F1002093F1005C
:100740001092F1008093F1001092F1008AE38093FF
:10075000E8009FBF80E008951F920F920FB60F929E
:1007600011248F939F938091E1001092E10083FF09
:1007700011C01092E90091E09093EB001092EC0010
:1007800092E19093ED0098E09093F00010920D01AB
:1007900010920A0182FF13C080910D01882379F025
:1007A00080910C01882359F0815080930C018111B4
:1007B00006C084E08093E9008AE38093E8009F917B
:1007C0008F910F900FBE0F901F9018951F920F9250
:1007D0000FB60F921124FF920F931F932F933F9305
:1007E0004F935F936F937F938F939F93AF93BF9339
:1007F000CF93DF93EF93FF931092E9008091E8008D
:1008000083FF17C1F090F1008091F1000091F10099
:100810009091F10010E0192BC091F1009091F1003E
:10082000D0E0D92B2091F1006091F10092EF9093EC
:10083000E800863009F049C08EE291E048E551E0D9
:10084000FC01A591B4910A171B07D9F4FC0132965B
:10085000A591B491CA17DB07A1F4FC013496459128
:100860005491FC013696849130E0362B2F3F3105B0
:1008700019F010F02FEF30E0281708F4822F3EEF28
:100880000CC0079648175907D9F6D3C0490F511D18
:10089000891B3093E8008823A9F09091E800292F64
:1008A0002570D9F392FDC8C0982F813108F090E1EE
:1008B000FA01292F222351F364916093F100215012
:1008C0003196F8CF903149F3B7C0853049F48EEFB7
:1008D0008093E8000E94450100680093E300ACC0EB
:1008E000893059F5F110A5C000930D0110920A014D
:1008F00010920C018EEF8093E80041E087ED91E0CB
:100900004093E9009C012F5F3F4FFC0154915093AD
:10091000EB00552359F0F90124912093EC009C0140
:100920002D5F3F4F3196E491E093ED004F5F4530EE
:1009300011F0C901E5CF8EE177C0883051F4F0E8BD
:10094000FF1277C00E94450180910D018093F10054
:1009500049C0813281F481EAF8126BC00E944501DE
:10096000E0E0F1E087E091E021912093F1008E1723
:100970009F07D1F737C08032A9F491E2F91259C02C
:100980008091E80082FFFCCFE0E0F1E087E091E0B9
:100990002091F10021938E179F07D1F78BEF809361
:1009A000E80020C0823241F4E1E2FE1242C000932E
:1009B0000A010E94450116C0811118C00E9445011C
:1009C000F2E8FF120AC0C093E9008091EB0085FBBA
:1009D000882780F91092E90001C080E08093F1003F
:1009E0001092F1008EEF8093E80026C0982F9D7F33
:1009F0009130F9F492E0F9121CC0012BD1F4CF77B9
:100A00009FEF9C0F9430A8F49EEF9093E800C09362
:100A1000E900833071F089E18093EB0081E090E0A0
:100A200001C0880FCA95EAF78093EA001092EA00A5
:100A300003C081E28093EB00FF91EF91DF91CF91B2
:100A4000BF91AF919F918F917F916F915F914F91E6
:100A50003F912F911F910F91FF900F900FBE0F901C
:100A60001F9018951F93CF93DF93EC01FE01149113
:100A7000112351F01A3019F48DE00E94A301812F47
:100A80000E94A3012196F2CFDF91CF911F9108958B
:100A90008A3010F097E301C090E3890F0C94A30112
:100AA000CF93C82F82958F700E9448058C2F8F702E
:100AB000CF910C944805CF93C82F892F0E945005E1
:100AC0008C2FCF910C9450050C945005EF92FF920F
:100AD0000F931F93CF93DF93CDB7DEB727970FB652
:100AE000F894DEBF0FBECDBF8E010F5F1F4F27E012
:100AF000F80111922A95E9F74AE0B8010E948906A7
:100B00007E01F8E0EF0EF11CF80181918F01811157
:100B10000E94A3010E151F05B9F727960FB6F8948A
:100B2000DEBF0FBECDBFDF91CF911F910F91FF9020
:100B3000EF900895EF92FF920F931F93CF93DF935F
:100B400000D000D000D0CDB7DEB78E010F5F1F4FB1
:100B500026E0F80111922A95E9F74AE0B8010E94CF
:100B6000C5067E01F6E0EF0EF11CF80181918F01C0
:100B700081110E94A3010E151F05B9F726960FB625
:100B8000F894DEBF0FBECDBFDF91CF911F910F91C3
:100B9000FF90EF900895EF92FF920F931F93CF93E2
:100BA000DF93CDB7DEB72B970FB6F894DEBF0FBE3D
:100BB000CDBF8E010F5F1F4F2BE0F80111922A95D8
:100BC000E9F72AE0A8010E9494067E01FCE0EF0EFE
:100BD000F11CF80181918F0181110E94A3010E1572
:100BE0001F05B9F72B960FB6F894DEBF0FBECDBF29
:100BF000DF91CF911F910F91FF90EF900895EF92A9
:100C0000FF920F931F93CF93DF93CDB7DEB72B9750
:100C10000FB6F894DEBF0FBECDBF8E010F5F1F4F22
:100C20002BE0F80111922A95E9F72AE0A8010E9429
:100C3000A3067E01FBE0EF0EF11CF80181918F010C
:100C400081110E94A3010E151F05B9F72B960FB64F
:100C5000F894DEBF0FBECDBFDF91CF911F910F91F2
:100C6000FF90EF9008950E944A0180919100846066
:100C70008093910080919100816080939100229AED
:100C80004E992A9A4E99FCCF2A98FACFE89409C037
:100C900097FB3EF490958095709561957F4F8F4FAF
:100CA0009F4F9923A9F0F92F96E9BB279395F695C5
:100CB000879577956795B795F111F8CFFAF4BB0F43
:100CC00011F460FF1BC06F5F7F4F8F4F9F4F16C0A7
:100CD000882311F096E911C0772321F09EE8872F31
:100CE000762F05C0662371F096E8862F70E060E0ED
:100CF0002AF09A95660F771F881FDAF7880F969566
:100D0000879597F90895EE0FFF1F0590F491E02D58
:100D10000994BB274A3031F4992322F4BDE290951F
:100D200081959F4F0C94C606BB272A3051F4992316
:100D300042F4BDE290958095709561957F4F8F4FFD
:100D40009F4F0C94A406BB27FA01A62F62177105CA
:100D500081059105330B30FB66F0AA27660F771FDC
:100D6000881F991FAA1FA21710F0A21B6395385065
:100D7000A9F7A05DAA3308F0A95DA19336F7B111D8
:100D8000B1931082CA010C94DF06BB27FB015527E3
:100D9000AA27880F991FAA1FA41710F0A41B8395D8
:100DA0005051B9F7A05DAA3308F0A95DA19300974F
:100DB00079F7B111B1931192CB010C94DF06DC01EC
:100DC000FC01672F71917723E1F7329704C07C9182
:100DD0006D9370836291AE17BF07C8F30895F894BE
:020DE000FFCF43
:080DE20000E100000000080020
:00000001FF
