:100000000C9456000C9460000C9460000C946000FA
:100010000C9460000C9460000C9460000C946000E0
:100020000C9460000C9460000C9460000C946000D0
:100030000C9460000C9460000C9460000C946000C0
:100040000C9460000C9460000C9460000C946000B0
:100050000C9460000C9460000C9460000C946000A0
:100060000C9460000C9460000C9460000C94600090
:100070000C9460000C9460000C9460000C94600080
:100080000C9460000C9460000C9460000C94600070
:100090000C9460000C9460000C9460000C94600060
:1000A0000C9460000C9460000C94600011241FBE3E
:1000B000CFEFDAE0DEBFCDBF0E943E010C947103AA
:1000C0000C9400004F925F926F927F928F929F925A
:1000D000AF92BF92CF92DF92EF92FF92CF93DF93D6
:1000E00000D000D0CDB7DEB769017A019B01AC0129
:1000F00060E070E080E89FE30E94E9014B015C0151
:10010000A701960160E070E080E89FE30E94E901AA
:100110002B013C01A701960160E070E080E89FE3BD
:100120000E94770120E030E040E854E40E9404039C
:1001300069837A838B839C83C12CD12C80E8E82E41
:1001400084E4F82E29813A814B815C81C701B60194
:100150000E94FF021816ECF4C701B6010E945B0270
:1001600070939900609398008FE99FE00197F1F7F1
:1001700000C00000A3019201C501B4010E94E90181
:100180009B01AC01C701B6010E9477016B017C01A4
:10019000D9CF0F900F900F900F90DF91CF91FF90DC
:1001A000EF90DF90CF90BF90AF909F908F907F9017
:1001B0006F905F904F9008954F925F926F927F92F1
:1001C0008F929F92AF92BF92CF92DF92EF92FF9267
:1001D00069017A019B01AC0160E070E080E89FE377
:1001E0000E94E9014B015C01A701960160E070E00B
:1001F00080E89FE30E94E9012B013C01A7019601E1
:1002000060E070E080E89FE30E94770120E030E04A
:1002100040E854E40E9404036B017C0120E030E0DC
:1002200040E854E40E94E40187FF1BC0C701B60107
:100230000E945B0270939900609398008FE99FE0A1
:100240000197F1F700C00000A3019201C501B401BC
:100250000E94E9019B01AC01C701B6010E9478012F
:10026000DBCFFF90EF90DF90CF90BF90AF909F904B
:100270008F907F906F905F904F90089580E880936B
:1002800061001092610080E487B983E88093900058
:100290008091900080648093900082E08093910030
:1002A00020E030E040E85FE36AE979E989E99EE32C
:1002B0000E94620020E030E040E85FE363E373E324
:1002C00083E39FE30E94DC002FEF8BE792E921504C
:1002D00080409040E1F700C000002FEF83E294EFF0
:1002E000215080409040E1F700C00000D9CF505825
:1002F000BB27AA270E948F010C94C5020E94B70257
:1003000038F00E94BE0220F039F49F3F19F426F421
:100310000C94B4020EF4E095E7FB0C94AE02E92FC6
:100320000E94D60258F3BA1762077307840795072D
:1003300020F079F4A6F50C94F8020EF4E0950B2E5B
:10034000BA2FA02D0B01B90190010C01CA01A00127
:100350001124FF27591B99F0593F50F4503E68F182
:100360001A16F040A22F232F342F4427585FF3CFC3
:10037000469537952795A795F0405395C9F77EF494
:100380001F16BA0B620B730B840BBAF09150A1F0DD
:10039000FF0FBB1F661F771F881FC2F70EC0BA0F63
:1003A000621F731F841F48F4879577956795B795EB
:1003B000F7959E3F08F0B0CF9395880F08F09927E6
:1003C000EE0F9795879508950E948A0208F481E0C0
:1003D00008950E94FD010C94C5020E94BE0258F0CF
:1003E0000E94B70240F029F45F3F29F00C94AE025E
:1003F00051110C94F9020C94B4020E94D60268F3D5
:100400009923B1F3552391F3951B550BBB27AA27CD
:1004100062177307840738F09F5F5F4F220F331F07
:10042000441FAA1FA9F335D00E2E3AF0E0E832D0CF
:1004300091505040E695001CCAF72BD0FE2F29D0D2
:10044000660F771F881FBB1F261737074807AB07A4
:10045000B0E809F0BB0B802DBF01FF2793585F4F19
:100460003AF09E3F510578F00C94AE020C94F902DC
:100470005F3FE4F3983ED4F3869577956795B795FB
:10048000F7959F5FC9F7880F911D9695879597F906
:100490000895E1E0660F771F881FBB1F621773077F
:1004A0008407BA0720F0621B730B840BBA0BEE1F94
:1004B00088F7E09508950E94DE0288F09F5798F033
:1004C000B92F9927B751B0F0E1F0660F771F881F59
:1004D000991F1AF0BA95C9F714C0B13091F00E9473
:1004E000F802B1E008950C94F802672F782F88275E
:1004F000B85F39F0B93FCCF3869577956795B3959A
:10050000D9F73EF490958095709561957F4F8F4F08
:100510009F4F0895990F0008550FAA0BE0E8FEEFD2
:1005200016161706E807F907C0F012161306E407B7
:10053000F50798F0621B730B840B950B39F40A26B0
:1005400061F0232B242B252B21F408950A2609F48E
:10055000A140A6958FEF811D811D089597F99F6792
:1005600080E870E060E008959FEF80EC089500243B
:100570000A941616170618060906089500240A9408
:1005800012161306140605060895092E0394000C8E
:1005900011F4882352F0BB0F40F4BF2B11F460FF1D
:1005A00004C06F5F7F4F8F4F9F4F089557FD905846
:1005B000440F551F59F05F3F71F04795880F97FB27
:1005C000991F61F09F3F79F08795089512161306E1
:1005D0001406551FF2CF4695F1DF08C01616170610
:1005E0001806991FF1CF8695710561050894089545
:1005F000E894BB2766277727CB0197F908950E94D7
:100600008A0208F48FEF08950E9417030C94C50224
:100610000E94B70238F00E94BE0220F0952311F02C
:100620000C94AE020C94B40211240C94F9020E94B2
:10063000D60270F3959FC1F3950F50E0551F629F4E
:10064000F001729FBB27F00DB11D639FAA27F00D2B
:10065000B11DAA1F649F6627B00DA11D661F829F52
:100660002227B00DA11D621F739FB00DA11D621F37
:10067000839FA00D611D221F749F3327A00D611D54
:10068000231F849F600D211D822F762F6A2F112436
:100690009F5750409AF0F1F088234AF0EE0FFF1F69
:1006A000BB1F661F771F881F91505040A9F79E3FC0
:1006B000510580F00C94AE020C94F9025F3FE4F314
:1006C000983ED4F3869577956795B795F795E79516
:1006D0009F5FC1F7FE2B880F911D9695879597F91F
:0606E0000895F894FFCF1D
:00000001FF
